{
  "contractName": "Basic",
  "abi": [
    {
      "constant": false,
      "inputs": [
        {
          "internalType": "address",
          "name": "_key",
          "type": "address"
        },
        {
          "internalType": "uint256",
          "name": "_value",
          "type": "uint256"
        }
      ],
      "name": "add",
      "outputs": [],
      "payable": false,
      "stateMutability": "nonpayable",
      "type": "function"
    },
    {
      "constant": false,
      "inputs": [
        {
          "internalType": "address",
          "name": "_key",
          "type": "address"
        }
      ],
      "name": "remove",
      "outputs": [],
      "payable": false,
      "stateMutability": "nonpayable",
      "type": "function"
    },
    {
      "constant": true,
      "inputs": [
        {
          "internalType": "address",
          "name": "_key",
          "type": "address"
        }
      ],
      "name": "contains",
      "outputs": [
        {
          "internalType": "bool",
          "name": "",
          "type": "bool"
        }
      ],
      "payable": false,
      "stateMutability": "view",
      "type": "function"
    },
    {
      "constant": true,
      "inputs": [
        {
          "internalType": "address",
          "name": "_key",
          "type": "address"
        }
      ],
      "name": "getByKey",
      "outputs": [
        {
          "internalType": "uint256",
          "name": "",
          "type": "uint256"
        }
      ],
      "payable": false,
      "stateMutability": "view",
      "type": "function"
    }
  ],
  "bytecode": "0x608060405234801561001057600080fd5b506103a4806100206000396000f3fe608060405234801561001057600080fd5b506004361061004c5760003560e01c806329092d0e14610051578063498770381461006d5780635dbe47e81461009d578063f5d82b6b146100cd575b600080fd5b61006b60048036036100669190810190610232565b6100e9565b005b61008760048036036100829190810190610232565b61012e565b60405161009491906102d0565b60405180910390f35b6100b760048036036100b29190810190610232565b610176565b6040516100c491906102b5565b60405180910390f35b6100e760048036036100e2919081019061025b565b6101c1565b005b6000808273ffffffffffffffffffffffffffffffffffffffff1673ffffffffffffffffffffffffffffffffffffffff1681526020019081526020016000206000905550565b60008060008373ffffffffffffffffffffffffffffffffffffffff1673ffffffffffffffffffffffffffffffffffffffff168152602001908152602001600020549050919050565b6000806000808473ffffffffffffffffffffffffffffffffffffffff1673ffffffffffffffffffffffffffffffffffffffff1681526020019081526020016000205414159050919050565b806000808473ffffffffffffffffffffffffffffffffffffffff1673ffffffffffffffffffffffffffffffffffffffff168152602001908152602001600020819055505050565b60008135905061021781610333565b92915050565b60008135905061022c8161034a565b92915050565b60006020828403121561024457600080fd5b600061025284828501610208565b91505092915050565b6000806040838503121561026e57600080fd5b600061027c85828601610208565b925050602061028d8582860161021d565b9150509250929050565b6102a0816102fd565b82525050565b6102af81610329565b82525050565b60006020820190506102ca6000830184610297565b92915050565b60006020820190506102e560008301846102a6565b92915050565b60006102f682610309565b9050919050565b60008115159050919050565b600073ffffffffffffffffffffffffffffffffffffffff82169050919050565b6000819050919050565b61033c816102eb565b811461034757600080fd5b50565b61035381610329565b811461035e57600080fd5b5056fea365627a7a7231582093ff0747929af26ee22d5c051b89a72918c2677a0bf8aa039531624fd187486e6c6578706572696d656e74616cf564736f6c63430005100040",
  "source": "pragma experimental ABIEncoderV2;\npragma solidity >=0.4.21 <0.7.0;\n\ncontract Basic {\n    mapping(address => uint) internal map;\n\n    function add(address _key, uint _value) public {\n        map[_key] = _value;\n    }\n\n    function remove(address _key) public {\n        delete map[_key];\n    }\n    \n    function contains(address _key) public view returns (bool) {\n        return map[_key] != 0;\n    }\n    \n    function getByKey(address _key) public view returns (uint) {\n        return map[_key];\n    }\n}",
  "sourcePath": "/home/anant/minor2/Medical-Records-Management-using-Ethereum-Blockchain/contracts/Basic.sol",
  "compiler": {
    "name": "solc",
    "version": "0.5.16+commit.9c3226ce.Emscripten.clang"
  },
  "schemaVersion": "3.0.22",
  "updatedAt": "2020-05-15T09:41:58.802Z",
  "devdoc": {
    "methods": {}
  },
  "userdoc": {
    "methods": {}
  }
}