{
  "contractName": "Hello",
  "abi": [
    {
      "inputs": [],
      "payable": false,
      "stateMutability": "nonpayable",
      "type": "constructor"
    },
    {
      "constant": false,
      "inputs": [
        {
          "internalType": "string",
          "name": "_date",
          "type": "string"
        },
        {
          "internalType": "string",
          "name": "_name",
          "type": "string"
        },
        {
          "internalType": "string",
          "name": "_age",
          "type": "string"
        },
        {
          "internalType": "string",
          "name": "_contact",
          "type": "string"
        },
        {
          "internalType": "string",
          "name": "_visitReason",
          "type": "string"
        },
        {
          "internalType": "string",
          "name": "_isEmergency",
          "type": "string"
        }
      ],
      "name": "setRecord",
      "outputs": [],
      "payable": false,
      "stateMutability": "nonpayable",
      "type": "function"
    },
    {
      "constant": true,
      "inputs": [
        {
          "internalType": "uint256",
          "name": "index",
          "type": "uint256"
        }
      ],
      "name": "getRecord",
      "outputs": [
        {
          "components": [
            {
              "internalType": "string",
              "name": "date",
              "type": "string"
            },
            {
              "internalType": "string",
              "name": "name",
              "type": "string"
            },
            {
              "internalType": "string",
              "name": "age",
              "type": "string"
            },
            {
              "internalType": "string",
              "name": "contact",
              "type": "string"
            },
            {
              "internalType": "string",
              "name": "visitReason",
              "type": "string"
            },
            {
              "internalType": "string",
              "name": "isEmergency",
              "type": "string"
            }
          ],
          "internalType": "struct Hello.Record",
          "name": "",
          "type": "tuple"
        }
      ],
      "payable": false,
      "stateMutability": "view",
      "type": "function"
    },
    {
      "constant": true,
      "inputs": [],
      "name": "getGreeting",
      "outputs": [
        {
          "internalType": "string[]",
          "name": "",
          "type": "string[]"
        }
      ],
      "payable": false,
      "stateMutability": "view",
      "type": "function"
    },
    {
      "constant": false,
      "inputs": [
        {
          "internalType": "string",
          "name": "_greeting",
          "type": "string"
        }
      ],
      "name": "setGreeting",
      "outputs": [],
      "payable": false,
      "stateMutability": "nonpayable",
      "type": "function"
    },
    {
      "constant": true,
      "inputs": [],
      "name": "getLength",
      "outputs": [
        {
          "internalType": "uint256",
          "name": "",
          "type": "uint256"
        }
      ],
      "payable": false,
      "stateMutability": "view",
      "type": "function"
    },
    {
      "constant": true,
      "inputs": [
        {
          "internalType": "uint256",
          "name": "index",
          "type": "uint256"
        }
      ],
      "name": "getElement",
      "outputs": [
        {
          "internalType": "string",
          "name": "",
          "type": "string"
        }
      ],
      "payable": false,
      "stateMutability": "view",
      "type": "function"
    }
  ],
  "bytecode": "0x608060405234801561001057600080fd5b506040518060400160405280600581526020017f68656c6c6f0000000000000000000000000000000000000000000000000000008152506000908051906020019061005c929190610062565b50610107565b828054600181600116156101000203166002900490600052602060002090601f016020900481019282601f106100a357805160ff19168380011785556100d1565b828001600101855582156100d1579182015b828111156100d05782518255916020019190600101906100b5565b5b5090506100de91906100e2565b5090565b61010491905b808211156101005760008160009055506001016100e8565b5090565b90565b610f69806101166000396000f3fe608060405234801561001057600080fd5b50600436106100625760003560e01c806303e9e609146100675780630c9e2386146100975780633a7d22bc146100b3578063a4136862146100e3578063be1c766b146100ff578063fe50cc721461011d575b600080fd5b610081600480360361007c9190810190610b88565b61013b565b60405161008e9190610dab565b60405180910390f35b6100b160048036036100ac9190810190610a6f565b61053c565b005b6100cd60048036036100c89190810190610b88565b610662565b6040516100da9190610d89565b60405180910390f35b6100fd60048036036100f89190810190610a2e565b61071b565b005b610107610774565b6040516101149190610dcd565b60405180910390f35b610125610781565b6040516101329190610d67565b60405180910390f35b61014361086a565b6002828154811061015057fe5b90600052602060002090600602016040518060c0016040529081600082018054600181600116156101000203166002900480601f0160208091040260200160405190810160405280929190818152602001828054600181600116156101000203166002900480156102025780601f106101d757610100808354040283529160200191610202565b820191906000526020600020905b8154815290600101906020018083116101e557829003601f168201915b50505050508152602001600182018054600181600116156101000203166002900480601f0160208091040260200160405190810160405280929190818152602001828054600181600116156101000203166002900480156102a45780601f10610279576101008083540402835291602001916102a4565b820191906000526020600020905b81548152906001019060200180831161028757829003601f168201915b50505050508152602001600282018054600181600116156101000203166002900480601f0160208091040260200160405190810160405280929190818152602001828054600181600116156101000203166002900480156103465780601f1061031b57610100808354040283529160200191610346565b820191906000526020600020905b81548152906001019060200180831161032957829003601f168201915b50505050508152602001600382018054600181600116156101000203166002900480601f0160208091040260200160405190810160405280929190818152602001828054600181600116156101000203166002900480156103e85780601f106103bd576101008083540402835291602001916103e8565b820191906000526020600020905b8154815290600101906020018083116103cb57829003601f168201915b50505050508152602001600482018054600181600116156101000203166002900480601f01602080910402602001604051908101604052809291908181526020018280546001816001161561010002031660029004801561048a5780601f1061045f5761010080835404028352916020019161048a565b820191906000526020600020905b81548152906001019060200180831161046d57829003601f168201915b50505050508152602001600582018054600181600116156101000203166002900480601f01602080910402602001604051908101604052809291908181526020018280546001816001161561010002031660029004801561052c5780601f106105015761010080835404028352916020019161052c565b820191906000526020600020905b81548152906001019060200180831161050f57829003601f168201915b5050505050815250509050919050565b61054461086a565b868160000181905250848160400181905250858160200181905250838160600181905250828160800181905250818160a001819052506002819080600181540180825580915050906001820390600052602060002090600602016000909192909190915060008201518160000190805190602001906105c49291906108a0565b5060208201518160010190805190602001906105e19291906108a0565b5060408201518160020190805190602001906105fe9291906108a0565b50606082015181600301908051906020019061061b9291906108a0565b5060808201518160040190805190602001906106389291906108a0565b5060a08201518160050190805190602001906106559291906108a0565b5050505050505050505050565b60606001828154811061067157fe5b906000526020600020018054600181600116156101000203166002900480601f01602080910402602001604051908101604052809291908181526020018280546001816001161561010002031660029004801561070f5780601f106106e45761010080835404028352916020019161070f565b820191906000526020600020905b8154815290600101906020018083116106f257829003601f168201915b50505050509050919050565b8060009080519060200190610731929190610920565b50600181908060018154018082558091505090600182039060005260206000200160009091929091909150908051906020019061076f929190610920565b505050565b6000600280549050905090565b60606001805480602002602001604051908101604052809291908181526020016000905b82821015610861578382906000526020600020018054600181600116156101000203166002900480601f01602080910402602001604051908101604052809291908181526020018280546001816001161561010002031660029004801561084d5780601f106108225761010080835404028352916020019161084d565b820191906000526020600020905b81548152906001019060200180831161083057829003601f168201915b5050505050815260200190600101906107a5565b50505050905090565b6040518060c001604052806060815260200160608152602001606081526020016060815260200160608152602001606081525090565b828054600181600116156101000203166002900490600052602060002090601f016020900481019282601f106108e157805160ff191683800117855561090f565b8280016001018555821561090f579182015b8281111561090e5782518255916020019190600101906108f3565b5b50905061091c91906109a0565b5090565b828054600181600116156101000203166002900490600052602060002090601f016020900481019282601f1061096157805160ff191683800117855561098f565b8280016001018555821561098f579182015b8281111561098e578251825591602001919060010190610973565b5b50905061099c91906109a0565b5090565b6109c291905b808211156109be5760008160009055506001016109a6565b5090565b90565b600082601f8301126109d657600080fd5b81356109e96109e482610e15565b610de8565b91508082526020830160208301858383011115610a0557600080fd5b610a10838284610ebc565b50505092915050565b600081359050610a2881610f0f565b92915050565b600060208284031215610a4057600080fd5b600082013567ffffffffffffffff811115610a5a57600080fd5b610a66848285016109c5565b91505092915050565b60008060008060008060c08789031215610a8857600080fd5b600087013567ffffffffffffffff811115610aa257600080fd5b610aae89828a016109c5565b965050602087013567ffffffffffffffff811115610acb57600080fd5b610ad789828a016109c5565b955050604087013567ffffffffffffffff811115610af457600080fd5b610b0089828a016109c5565b945050606087013567ffffffffffffffff811115610b1d57600080fd5b610b2989828a016109c5565b935050608087013567ffffffffffffffff811115610b4657600080fd5b610b5289828a016109c5565b92505060a087013567ffffffffffffffff811115610b6f57600080fd5b610b7b89828a016109c5565b9150509295509295509295565b600060208284031215610b9a57600080fd5b6000610ba884828501610a19565b91505092915050565b6000610bbd8383610c73565b905092915050565b6000610bd082610e51565b610bda8185610e7f565b935083602082028501610bec85610e41565b8060005b85811015610c285784840389528151610c098582610bb1565b9450610c1483610e72565b925060208a01995050600181019050610bf0565b50829750879550505050505092915050565b6000610c4582610e67565b610c4f8185610ea1565b9350610c5f818560208601610ecb565b610c6881610efe565b840191505092915050565b6000610c7e82610e5c565b610c888185610e90565b9350610c98818560208601610ecb565b610ca181610efe565b840191505092915050565b600060c0830160008301518482036000860152610cc98282610c73565b91505060208301518482036020860152610ce38282610c73565b91505060408301518482036040860152610cfd8282610c73565b91505060608301518482036060860152610d178282610c73565b91505060808301518482036080860152610d318282610c73565b91505060a083015184820360a0860152610d4b8282610c73565b9150508091505092915050565b610d6181610eb2565b82525050565b60006020820190508181036000830152610d818184610bc5565b905092915050565b60006020820190508181036000830152610da38184610c3a565b905092915050565b60006020820190508181036000830152610dc58184610cac565b905092915050565b6000602082019050610de26000830184610d58565b92915050565b6000604051905081810181811067ffffffffffffffff82111715610e0b57600080fd5b8060405250919050565b600067ffffffffffffffff821115610e2c57600080fd5b601f19601f8301169050602081019050919050565b6000819050602082019050919050565b600081519050919050565b600081519050919050565b600081519050919050565b6000602082019050919050565b600082825260208201905092915050565b600082825260208201905092915050565b600082825260208201905092915050565b6000819050919050565b82818337600083830152505050565b60005b83811015610ee9578082015181840152602081019050610ece565b83811115610ef8576000848401525b50505050565b6000601f19601f8301169050919050565b610f1881610eb2565b8114610f2357600080fd5b5056fea365627a7a72315820c18f597b64893334158b6dc6097b548f69cf3e941559d2c9295e87ba7b73dad16c6578706572696d656e74616cf564736f6c63430005100040",
  "source": "pragma experimental ABIEncoderV2;\npragma solidity >=0.4.21 <0.7.0;\n\ncontract Hello {\n    string greeting;\n\n    string[] greetings;\n\n    struct Record {\n        string date;\n        string name;\n        string age;\n        string contact;\n        string visitReason;\n        string isEmergency;\n    }\n\n    Record[] record;\n\n   // mapping (address => Record) Records;\n\n   // address[] public recordAccts;\n\n    constructor() public {\n        greeting = \"hello\";\n    }\n\n    function setRecord(string memory _date,\n        string memory _name,\n        string memory _age,\n        string memory _contact,\n        string memory _visitReason,\n        string memory _isEmergency) public {\n\n       // Record memory record = Records[_address];\n       Record memory r;\n       r.date = _date;\n       r.age = _age;\n        r.name = _name;\n        r.contact = _contact;\n        r.visitReason = _visitReason;\n        r.isEmergency = _isEmergency;\n       \n\n        record.push(r);\n        // record.age = _age;\n        // record.name = _name;\n        // record.contact = _contact;\n        // record.visitReason = _visitReason;\n        // record.isEmergency = _isEmergency;\n        \n        // recordAccts.push(_address) -1;\n\n    }\n\n    function getRecord(uint index) public view returns (Record memory) {\n        return record[index];\n    }\n\n    function getGreeting() public view returns (string[] memory) {\n        return greetings;\n    }\n\n    function setGreeting(string memory _greeting) public {\n        greeting = _greeting;\n        greetings.push(_greeting);\n    }\n\n    function getLength() public view returns (uint) {\n        return record.length;\n    }\n\n    function getElement(uint index) public view returns (string memory) {\n        return greetings[index];\n    }\n}\n",
  "sourcePath": "/home/anant/minor2/Medical-Records-Management-using-Ethereum-Blockchain/contracts/Hello.sol",
  "compiler": {
    "name": "solc",
    "version": "0.5.16+commit.9c3226ce.Emscripten.clang"
  },
  "schemaVersion": "3.0.22",
  "updatedAt": "2020-05-15T09:44:53.819Z",
  "networkType": "ethereum",
  "devdoc": {
    "methods": {}
  },
  "userdoc": {
    "methods": {}
  }
}