{
  "contractName": "Hello",
  "abi": [
    {
      "inputs": [],
      "payable": false,
      "stateMutability": "nonpayable",
      "type": "constructor"
    },
    {
      "constant": true,
      "inputs": [],
      "name": "getGreeting",
      "outputs": [
        {
          "internalType": "string[]",
          "name": "",
          "type": "string[]"
        }
      ],
      "payable": false,
      "stateMutability": "view",
      "type": "function"
    },
    {
      "constant": false,
      "inputs": [
        {
          "internalType": "string",
          "name": "_greeting",
          "type": "string"
        }
      ],
      "name": "setGreeting",
      "outputs": [],
      "payable": false,
      "stateMutability": "nonpayable",
      "type": "function"
    },
    {
      "constant": true,
      "inputs": [],
      "name": "getLength",
      "outputs": [
        {
          "internalType": "uint256",
          "name": "",
          "type": "uint256"
        }
      ],
      "payable": false,
      "stateMutability": "view",
      "type": "function"
    },
    {
      "constant": true,
      "inputs": [
        {
          "internalType": "uint256",
          "name": "index",
          "type": "uint256"
        }
      ],
      "name": "getElement",
      "outputs": [
        {
          "internalType": "string",
          "name": "",
          "type": "string"
        }
      ],
      "payable": false,
      "stateMutability": "view",
      "type": "function"
    }
  ],
  "bytecode": "0x608060405234801561001057600080fd5b506040518060400160405280600581526020017f68656c6c6f0000000000000000000000000000000000000000000000000000008152506000908051906020019061005c929190610062565b50610107565b828054600181600116156101000203166002900490600052602060002090601f016020900481019282601f106100a357805160ff19168380011785556100d1565b828001600101855582156100d1579182015b828111156100d05782518255916020019190600101906100b5565b5b5090506100de91906100e2565b5090565b61010491905b808211156101005760008160009055506001016100e8565b5090565b90565b610743806101166000396000f3fe608060405234801561001057600080fd5b506004361061004c5760003560e01c80633a7d22bc14610051578063a413686214610081578063be1c766b1461009d578063fe50cc72146100bb575b600080fd5b61006b60048036036100669190810190610430565b6100d9565b6040516100789190610585565b60405180910390f35b61009b600480360361009691908101906103ef565b610192565b005b6100a56101eb565b6040516100b291906105a7565b60405180910390f35b6100c36101f8565b6040516100d09190610563565b60405180910390f35b6060600182815481106100e857fe5b906000526020600020018054600181600116156101000203166002900480601f0160208091040260200160405190810160405280929190818152602001828054600181600116156101000203166002900480156101865780601f1061015b57610100808354040283529160200191610186565b820191906000526020600020905b81548152906001019060200180831161016957829003601f168201915b50505050509050919050565b80600090805190602001906101a89291906102e1565b5060018190806001815401808255809150509060018203906000526020600020016000909192909190915090805190602001906101e69291906102e1565b505050565b6000600180549050905090565b60606001805480602002602001604051908101604052809291908181526020016000905b828210156102d8578382906000526020600020018054600181600116156101000203166002900480601f0160208091040260200160405190810160405280929190818152602001828054600181600116156101000203166002900480156102c45780601f10610299576101008083540402835291602001916102c4565b820191906000526020600020905b8154815290600101906020018083116102a757829003601f168201915b50505050508152602001906001019061021c565b50505050905090565b828054600181600116156101000203166002900490600052602060002090601f016020900481019282601f1061032257805160ff1916838001178555610350565b82800160010185558215610350579182015b8281111561034f578251825591602001919060010190610334565b5b50905061035d9190610361565b5090565b61038391905b8082111561037f576000816000905550600101610367565b5090565b90565b600082601f83011261039757600080fd5b81356103aa6103a5826105ef565b6105c2565b915080825260208301602083018583830111156103c657600080fd5b6103d1838284610696565b50505092915050565b6000813590506103e9816106e9565b92915050565b60006020828403121561040157600080fd5b600082013567ffffffffffffffff81111561041b57600080fd5b61042784828501610386565b91505092915050565b60006020828403121561044257600080fd5b6000610450848285016103da565b91505092915050565b6000610465838361051b565b905092915050565b60006104788261062b565b6104828185610659565b9350836020820285016104948561061b565b8060005b858110156104d057848403895281516104b18582610459565b94506104bc8361064c565b925060208a01995050600181019050610498565b50829750879550505050505092915050565b60006104ed82610641565b6104f7818561067b565b93506105078185602086016106a5565b610510816106d8565b840191505092915050565b600061052682610636565b610530818561066a565b93506105408185602086016106a5565b610549816106d8565b840191505092915050565b61055d8161068c565b82525050565b6000602082019050818103600083015261057d818461046d565b905092915050565b6000602082019050818103600083015261059f81846104e2565b905092915050565b60006020820190506105bc6000830184610554565b92915050565b6000604051905081810181811067ffffffffffffffff821117156105e557600080fd5b8060405250919050565b600067ffffffffffffffff82111561060657600080fd5b601f19601f8301169050602081019050919050565b6000819050602082019050919050565b600081519050919050565b600081519050919050565b600081519050919050565b6000602082019050919050565b600082825260208201905092915050565b600082825260208201905092915050565b600082825260208201905092915050565b6000819050919050565b82818337600083830152505050565b60005b838110156106c35780820151818401526020810190506106a8565b838111156106d2576000848401525b50505050565b6000601f19601f8301169050919050565b6106f28161068c565b81146106fd57600080fd5b5056fea365627a7a723158207da6485ae066959f9644f5966a3a665f99829a533628e1e2c002015759310fb06c6578706572696d656e74616cf564736f6c63430005100040",
  "source": "pragma experimental ABIEncoderV2;\npragma solidity >=0.4.21 <0.7.0;\n\ncontract Hello {\n    string greeting;\n\n    string[] greetings;\n\n    constructor() public {\n        greeting = \"hello\";\n    }\n\n    function getGreeting() public view returns (string[] memory) {\n        return greetings;\n    }\n\n    function setGreeting(string memory _greeting) public {\n        greeting = _greeting;\n        greetings.push(_greeting);\n    }\n\n    function getLength() public view returns (uint) {\n        return greetings.length;\n    }\n\n    function getElement(uint index) public view returns (string memory) {\n        return greetings[index];\n    }\n}\n",
  "sourcePath": "/home/anant/minor2/zeptobook-dapp/contracts/Hello.sol",
  "compiler": {
    "name": "solc",
    "version": "0.5.16+commit.9c3226ce.Emscripten.clang"
  },
  "schemaVersion": "3.0.22",
  "updatedAt": "2020-03-03T05:29:14.232Z",
  "networkType": "ethereum",
  "devdoc": {
    "methods": {}
  },
  "userdoc": {
    "methods": {}
  }
}