{
  "contractName": "Login",
  "abi": [
    {
      "constant": false,
      "inputs": [
        {
          "internalType": "address",
          "name": "_key",
          "type": "address"
        },
        {
          "internalType": "string",
          "name": "password",
          "type": "string"
        },
        {
          "internalType": "string",
          "name": "name",
          "type": "string"
        }
      ],
      "name": "add",
      "outputs": [],
      "payable": false,
      "stateMutability": "nonpayable",
      "type": "function"
    },
    {
      "constant": false,
      "inputs": [
        {
          "internalType": "address",
          "name": "_key",
          "type": "address"
        }
      ],
      "name": "remove",
      "outputs": [],
      "payable": false,
      "stateMutability": "nonpayable",
      "type": "function"
    },
    {
      "constant": true,
      "inputs": [
        {
          "internalType": "address",
          "name": "_key",
          "type": "address"
        }
      ],
      "name": "getByKey",
      "outputs": [
        {
          "components": [
            {
              "internalType": "string",
              "name": "password",
              "type": "string"
            },
            {
              "internalType": "string",
              "name": "name",
              "type": "string"
            }
          ],
          "internalType": "struct Login.Patient",
          "name": "",
          "type": "tuple"
        }
      ],
      "payable": false,
      "stateMutability": "view",
      "type": "function"
    }
  ],
  "bytecode": "0x608060405234801561001057600080fd5b5061074e806100206000396000f3fe608060405234801561001057600080fd5b50600436106100415760003560e01c806329092d0e1461004657806346bc7fd914610062578063498770381461007e575b600080fd5b610060600480360361005b91908101906104b3565b6100ae565b005b61007c600480360361007791908101906104dc565b610112565b005b610098600480360361009391908101906104b3565b6101a7565b6040516100a591906105d8565b60405180910390f35b6000808273ffffffffffffffffffffffffffffffffffffffff1673ffffffffffffffffffffffffffffffffffffffff168152602001908152602001600020600080820160006100fd9190610343565b60018201600061010d9190610343565b505050565b6040518060400160405280838152602001828152506000808573ffffffffffffffffffffffffffffffffffffffff1673ffffffffffffffffffffffffffffffffffffffff168152602001908152602001600020600082015181600001908051906020019061018192919061038b565b50602082015181600101908051906020019061019e92919061038b565b50905050505050565b6101af61040b565b6000808373ffffffffffffffffffffffffffffffffffffffff1673ffffffffffffffffffffffffffffffffffffffff168152602001908152602001600020604051806040016040529081600082018054600181600116156101000203166002900480601f0160208091040260200160405190810160405280929190818152602001828054600181600116156101000203166002900480156102915780601f1061026657610100808354040283529160200191610291565b820191906000526020600020905b81548152906001019060200180831161027457829003601f168201915b50505050508152602001600182018054600181600116156101000203166002900480601f0160208091040260200160405190810160405280929190818152602001828054600181600116156101000203166002900480156103335780601f1061030857610100808354040283529160200191610333565b820191906000526020600020905b81548152906001019060200180831161031657829003601f168201915b5050505050815250509050919050565b50805460018160011615610100020316600290046000825580601f106103695750610388565b601f0160209004906000526020600020908101906103879190610425565b5b50565b828054600181600116156101000203166002900490600052602060002090601f016020900481019282601f106103cc57805160ff19168380011785556103fa565b828001600101855582156103fa579182015b828111156103f95782518255916020019190600101906103de565b5b5090506104079190610425565b5090565b604051806040016040528060608152602001606081525090565b61044791905b8082111561044357600081600090555060010161042b565b5090565b90565b600081359050610459816106f4565b92915050565b600082601f83011261047057600080fd5b813561048361047e82610627565b6105fa565b9150808252602083016020830185838301111561049f57600080fd5b6104aa8382846106a1565b50505092915050565b6000602082840312156104c557600080fd5b60006104d38482850161044a565b91505092915050565b6000806000606084860312156104f157600080fd5b60006104ff8682870161044a565b935050602084013567ffffffffffffffff81111561051c57600080fd5b6105288682870161045f565b925050604084013567ffffffffffffffff81111561054557600080fd5b6105518682870161045f565b9150509250925092565b600061056682610653565b610570818561065e565b93506105808185602086016106b0565b610589816106e3565b840191505092915050565b600060408301600083015184820360008601526105b1828261055b565b915050602083015184820360208601526105cb828261055b565b9150508091505092915050565b600060208201905081810360008301526105f28184610594565b905092915050565b6000604051905081810181811067ffffffffffffffff8211171561061d57600080fd5b8060405250919050565b600067ffffffffffffffff82111561063e57600080fd5b601f19601f8301169050602081019050919050565b600081519050919050565b600082825260208201905092915050565b600061067a82610681565b9050919050565b600073ffffffffffffffffffffffffffffffffffffffff82169050919050565b82818337600083830152505050565b60005b838110156106ce5780820151818401526020810190506106b3565b838111156106dd576000848401525b50505050565b6000601f19601f8301169050919050565b6106fd8161066f565b811461070857600080fd5b5056fea365627a7a7231582025676dad53e69c48d9e7dec8f577ee1f88b9ff98090e4efa38e89652fba6d7056c6578706572696d656e74616cf564736f6c63430005100040",
  "source": "pragma experimental ABIEncoderV2;\npragma solidity >=0.4.21 <0.7.0;\n\ncontract Login {\n\n    struct Patient {\n        string password;\n        string name;\n    }\n    mapping(address => Patient) internal patients;\n\n    function add(address _key, string memory password, string memory name) public {\n        patients[_key] = Patient(password, name);\n    }\n\n    function remove(address _key) public {\n        delete patients[_key];\n    }\n    \n    // function contains(address _key) public view returns (bool) {\n    //     return patients[_key] != NULL;\n    // }\n    \n    function getByKey(address _key) public view returns (Patient memory) {\n        return patients[_key];\n    }\n}",
  "sourcePath": "/home/anant/minor2/Medical-Records-Management-using-Ethereum-Blockchain/contracts/Login.sol",
  "compiler": {
    "name": "solc",
    "version": "0.5.16+commit.9c3226ce.Emscripten.clang"
  },
  "schemaVersion": "3.0.22",
  "updatedAt": "2020-05-15T10:38:33.246Z",
  "networkType": "ethereum",
  "devdoc": {
    "methods": {}
  },
  "userdoc": {
    "methods": {}
  }
}